{
  "_format": "hh-sol-artifact-1",
  "contractName": "Wallet",
  "sourceName": "contracts/Wallet.sol",
  "abi": [
    {
      "inputs": [
        {
          "internalType": "address",
          "name": "_forwarder",
          "type": "address"
        }
      ],
      "stateMutability": "nonpayable",
      "type": "constructor"
    },
    {
      "inputs": [
        {
          "internalType": "address",
          "name": "sender",
          "type": "address"
        },
        {
          "internalType": "address",
          "name": "owner",
          "type": "address"
        }
      ],
      "name": "NotAuthorized",
      "type": "error"
    },
    {
      "inputs": [
        {
          "internalType": "address",
          "name": "forwarder",
          "type": "address"
        }
      ],
      "name": "isTrustedForwarder",
      "outputs": [
        {
          "internalType": "bool",
          "name": "",
          "type": "bool"
        }
      ],
      "stateMutability": "view",
      "type": "function"
    },
    {
      "inputs": [],
      "name": "owner",
      "outputs": [
        {
          "internalType": "address",
          "name": "",
          "type": "address"
        }
      ],
      "stateMutability": "view",
      "type": "function"
    },
    {
      "inputs": [
        {
          "internalType": "bytes32",
          "name": "_key",
          "type": "bytes32"
        }
      ],
      "name": "retrieve",
      "outputs": [
        {
          "internalType": "bytes[]",
          "name": "",
          "type": "bytes[]"
        }
      ],
      "stateMutability": "view",
      "type": "function"
    },
    {
      "inputs": [
        {
          "internalType": "bytes32",
          "name": "_key",
          "type": "bytes32"
        },
        {
          "internalType": "bytes[]",
          "name": "_value",
          "type": "bytes[]"
        }
      ],
      "name": "store",
      "outputs": [],
      "stateMutability": "nonpayable",
      "type": "function"
    },
    {
      "inputs": [],
      "name": "trustedForwarder",
      "outputs": [
        {
          "internalType": "address",
          "name": "",
          "type": "address"
        }
      ],
      "stateMutability": "view",
      "type": "function"
    },
    {
      "inputs": [],
      "name": "versionRecipient",
      "outputs": [
        {
          "internalType": "string",
          "name": "",
          "type": "string"
        }
      ],
      "stateMutability": "pure",
      "type": "function"
    }
  ],
  "bytecode": "0x608060405234801561001057600080fd5b5060405161081638038061081683398101604081905261002f916100ac565b600080546001600160a01b0319166001600160a01b038316179055610052610078565b600180546001600160a01b0319166001600160a01b0392909216919091179055506100dc565b60006014361080159061009557506000546001600160a01b031633145b156100a7575060131936013560601c90565b503390565b6000602082840312156100be57600080fd5b81516001600160a01b03811681146100d557600080fd5b9392505050565b61072b806100eb6000396000f3fe608060405234801561001057600080fd5b50600436106100625760003560e01c8063486ff0cd14610067578063572b6c05146100975780637da0a877146100c95780638da5cb5b146100ee578063ac7bc2cf14610101578063d1ed74ad14610116575b600080fd5b60408051808201825260058152640322e322e360dc1b6020820152905161008e9190610491565b60405180910390f35b6100b96100a53660046104ab565b6000546001600160a01b0391821691161490565b604051901515815260200161008e565b6000546001600160a01b03165b6040516001600160a01b03909116815260200161008e565b6001546100d6906001600160a01b031681565b61011461010f36600461051b565b610136565b005b61012961012436600461063f565b6101b7565b60405161008e9190610658565b6001546001600160a01b031661014a6102c4565b6001600160a01b031614610193576101606102c4565b60015460405163c55ddc9760e01b81526001600160a01b0392831660048201529116602482015260440160405180910390fd5b600082815260026020908152604090912082516101b2928401906102f8565b505050565b6001546060906001600160a01b03166101ce6102c4565b6001600160a01b0316146101e4576101606102c4565b600082815260026020908152604080832080548251818502810185019093528083529193909284015b828210156102b957838290600052602060002001805461022c906106ba565b80601f0160208091040260200160405190810160405280929190818152602001828054610258906106ba565b80156102a55780601f1061027a576101008083540402835291602001916102a5565b820191906000526020600020905b81548152906001019060200180831161028857829003601f168201915b50505050508152602001906001019061020d565b505050509050919050565b6000601436108015906102e157506000546001600160a01b031633145b156102f3575060131936013560601c90565b503390565b828054828255906000526020600020908101928215610345579160200282015b828111156103455782518051610335918491602090910190610355565b5091602001919060010190610318565b506103519291506103d5565b5090565b828054610361906106ba565b90600052602060002090601f01602090048101928261038357600085556103c9565b82601f1061039c57805160ff19168380011785556103c9565b828001600101855582156103c9579182015b828111156103c95782518255916020019190600101906103ae565b506103519291506103f2565b808211156103515760006103e98282610407565b506001016103d5565b5b8082111561035157600081556001016103f3565b508054610413906106ba565b6000825580601f10610423575050565b601f01602090049060005260206000209081019061044191906103f2565b50565b6000815180845260005b8181101561046a5760208185018101518683018201520161044e565b8181111561047c576000602083870101525b50601f01601f19169290920160200192915050565b6020815260006104a46020830184610444565b9392505050565b6000602082840312156104bd57600080fd5b81356001600160a01b03811681146104a457600080fd5b634e487b7160e01b600052604160045260246000fd5b604051601f8201601f1916810167ffffffffffffffff81118282101715610513576105136104d4565b604052919050565b600080604080848603121561052f57600080fd5b8335925060208085013567ffffffffffffffff8082111561054f57600080fd5b8187019150601f888184011261056457600080fd5b823582811115610576576105766104d4565b8060051b6105858682016104ea565b918252848101860191868101908c84111561059f57600080fd5b87870192505b8383101561062c578235868111156105bd5760008081fd5b8701603f81018e136105cf5760008081fd5b88810135878111156105e3576105e36104d4565b6105f4818801601f19168b016104ea565b8181528f8c8385010111156106095760008081fd5b818c84018c83013760009181018b019190915283525091870191908701906105a5565b8099505050505050505050509250929050565b60006020828403121561065157600080fd5b5035919050565b6000602080830181845280855180835260408601915060408160051b870101925083870160005b828110156106ad57603f1988860301845261069b858351610444565b9450928501929085019060010161067f565b5092979650505050505050565b600181811c908216806106ce57607f821691505b602082108114156106ef57634e487b7160e01b600052602260045260246000fd5b5091905056fea26469706673582212208b1b08dedbbd14cfcf5dc0ec7621628e3fa16fd02e321cb44fdc4139876513c664736f6c63430008090033",
  "linkReferences": {},
  "deployedLinkReferences": {}
}